{
  "_format": "hh-sol-artifact-1",
  "contractName": "MyNFT",
  "sourceName": "contracts/MyNFT.sol",
  "abi": [
    {
      "inputs": [],
      "stateMutability": "nonpayable",
      "type": "constructor"
    },
    {
      "anonymous": false,
      "inputs": [
        {
          "indexed": true,
          "internalType": "address",
          "name": "owner",
          "type": "address"
        },
        {
          "indexed": true,
          "internalType": "address",
          "name": "approved",
          "type": "address"
        },
        {
          "indexed": true,
          "internalType": "uint256",
          "name": "tokenId",
          "type": "uint256"
        }
      ],
      "name": "Approval",
      "type": "event"
    },
    {
      "anonymous": false,
      "inputs": [
        {
          "indexed": true,
          "internalType": "address",
          "name": "owner",
          "type": "address"
        },
        {
          "indexed": true,
          "internalType": "address",
          "name": "operator",
          "type": "address"
        },
        {
          "indexed": false,
          "internalType": "bool",
          "name": "approved",
          "type": "bool"
        }
      ],
      "name": "ApprovalForAll",
      "type": "event"
    },
    {
      "anonymous": false,
      "inputs": [
        {
          "indexed": true,
          "internalType": "address",
          "name": "previousOwner",
          "type": "address"
        },
        {
          "indexed": true,
          "internalType": "address",
          "name": "newOwner",
          "type": "address"
        }
      ],
      "name": "OwnershipTransferred",
      "type": "event"
    },
    {
      "anonymous": false,
      "inputs": [
        {
          "indexed": true,
          "internalType": "address",
          "name": "from",
          "type": "address"
        },
        {
          "indexed": true,
          "internalType": "address",
          "name": "to",
          "type": "address"
        },
        {
          "indexed": true,
          "internalType": "uint256",
          "name": "tokenId",
          "type": "uint256"
        }
      ],
      "name": "Transfer",
      "type": "event"
    },
    {
      "inputs": [
        {
          "internalType": "address",
          "name": "to",
          "type": "address"
        },
        {
          "internalType": "uint256",
          "name": "tokenId",
          "type": "uint256"
        }
      ],
      "name": "approve",
      "outputs": [],
      "stateMutability": "nonpayable",
      "type": "function"
    },
    {
      "inputs": [
        {
          "internalType": "address",
          "name": "owner",
          "type": "address"
        }
      ],
      "name": "balanceOf",
      "outputs": [
        {
          "internalType": "uint256",
          "name": "",
          "type": "uint256"
        }
      ],
      "stateMutability": "view",
      "type": "function"
    },
    {
      "inputs": [
        {
          "internalType": "uint256",
          "name": "tokenId",
          "type": "uint256"
        }
      ],
      "name": "getApproved",
      "outputs": [
        {
          "internalType": "address",
          "name": "",
          "type": "address"
        }
      ],
      "stateMutability": "view",
      "type": "function"
    },
    {
      "inputs": [
        {
          "internalType": "address",
          "name": "owner",
          "type": "address"
        },
        {
          "internalType": "address",
          "name": "operator",
          "type": "address"
        }
      ],
      "name": "isApprovedForAll",
      "outputs": [
        {
          "internalType": "bool",
          "name": "",
          "type": "bool"
        }
      ],
      "stateMutability": "view",
      "type": "function"
    },
    {
      "inputs": [
        {
          "internalType": "string",
          "name": "_tokenURI",
          "type": "string"
        }
      ],
      "name": "mint",
      "outputs": [
        {
          "internalType": "uint256",
          "name": "",
          "type": "uint256"
        }
      ],
      "stateMutability": "nonpayable",
      "type": "function"
    },
    {
      "inputs": [],
      "name": "name",
      "outputs": [
        {
          "internalType": "string",
          "name": "",
          "type": "string"
        }
      ],
      "stateMutability": "view",
      "type": "function"
    },
    {
      "inputs": [],
      "name": "owner",
      "outputs": [
        {
          "internalType": "address",
          "name": "",
          "type": "address"
        }
      ],
      "stateMutability": "view",
      "type": "function"
    },
    {
      "inputs": [
        {
          "internalType": "uint256",
          "name": "tokenId",
          "type": "uint256"
        }
      ],
      "name": "ownerOf",
      "outputs": [
        {
          "internalType": "address",
          "name": "",
          "type": "address"
        }
      ],
      "stateMutability": "view",
      "type": "function"
    },
    {
      "inputs": [],
      "name": "renounceOwnership",
      "outputs": [],
      "stateMutability": "nonpayable",
      "type": "function"
    },
    {
      "inputs": [
        {
          "internalType": "address",
          "name": "from",
          "type": "address"
        },
        {
          "internalType": "address",
          "name": "to",
          "type": "address"
        },
        {
          "internalType": "uint256",
          "name": "tokenId",
          "type": "uint256"
        }
      ],
      "name": "safeTransferFrom",
      "outputs": [],
      "stateMutability": "nonpayable",
      "type": "function"
    },
    {
      "inputs": [
        {
          "internalType": "address",
          "name": "from",
          "type": "address"
        },
        {
          "internalType": "address",
          "name": "to",
          "type": "address"
        },
        {
          "internalType": "uint256",
          "name": "tokenId",
          "type": "uint256"
        },
        {
          "internalType": "bytes",
          "name": "_data",
          "type": "bytes"
        }
      ],
      "name": "safeTransferFrom",
      "outputs": [],
      "stateMutability": "nonpayable",
      "type": "function"
    },
    {
      "inputs": [
        {
          "internalType": "address",
          "name": "operator",
          "type": "address"
        },
        {
          "internalType": "bool",
          "name": "approved",
          "type": "bool"
        }
      ],
      "name": "setApprovalForAll",
      "outputs": [],
      "stateMutability": "nonpayable",
      "type": "function"
    },
    {
      "inputs": [
        {
          "internalType": "bytes4",
          "name": "interfaceId",
          "type": "bytes4"
        }
      ],
      "name": "supportsInterface",
      "outputs": [
        {
          "internalType": "bool",
          "name": "",
          "type": "bool"
        }
      ],
      "stateMutability": "view",
      "type": "function"
    },
    {
      "inputs": [],
      "name": "symbol",
      "outputs": [
        {
          "internalType": "string",
          "name": "",
          "type": "string"
        }
      ],
      "stateMutability": "view",
      "type": "function"
    },
    {
      "inputs": [
        {
          "internalType": "uint256",
          "name": "index",
          "type": "uint256"
        }
      ],
      "name": "tokenByIndex",
      "outputs": [
        {
          "internalType": "uint256",
          "name": "",
          "type": "uint256"
        }
      ],
      "stateMutability": "view",
      "type": "function"
    },
    {
      "inputs": [],
      "name": "tokenID",
      "outputs": [
        {
          "internalType": "uint256",
          "name": "",
          "type": "uint256"
        }
      ],
      "stateMutability": "view",
      "type": "function"
    },
    {
      "inputs": [
        {
          "internalType": "address",
          "name": "owner",
          "type": "address"
        },
        {
          "internalType": "uint256",
          "name": "index",
          "type": "uint256"
        }
      ],
      "name": "tokenOfOwnerByIndex",
      "outputs": [
        {
          "internalType": "uint256",
          "name": "",
          "type": "uint256"
        }
      ],
      "stateMutability": "view",
      "type": "function"
    },
    {
      "inputs": [
        {
          "internalType": "uint256",
          "name": "tokenId",
          "type": "uint256"
        }
      ],
      "name": "tokenURI",
      "outputs": [
        {
          "internalType": "string",
          "name": "",
          "type": "string"
        }
      ],
      "stateMutability": "view",
      "type": "function"
    },
    {
      "inputs": [],
      "name": "totalSupply",
      "outputs": [
        {
          "internalType": "uint256",
          "name": "",
          "type": "uint256"
        }
      ],
      "stateMutability": "view",
      "type": "function"
    },
    {
      "inputs": [
        {
          "internalType": "address",
          "name": "from",
          "type": "address"
        },
        {
          "internalType": "address",
          "name": "to",
          "type": "address"
        },
        {
          "internalType": "uint256",
          "name": "tokenId",
          "type": "uint256"
        }
      ],
      "name": "transferFrom",
      "outputs": [],
      "stateMutability": "nonpayable",
      "type": "function"
    },
    {
      "inputs": [
        {
          "internalType": "address",
          "name": "newOwner",
          "type": "address"
        }
      ],
      "name": "transferOwnership",
      "outputs": [],
      "stateMutability": "nonpayable",
      "type": "function"
    }
  ],
  "bytecode": "0x60806040523480156200001157600080fd5b506040518060400160405280600481526020017f534e4654000000000000000000000000000000000000000000000000000000008152506040518060400160405280600981526020017f534e45414b455246540000000000000000000000000000000000000000000000815250816000908051906020019062000096929190620001a6565b508060019080519060200190620000af929190620001a6565b505050620000d2620000c6620000d860201b60201c565b620000e060201b60201c565b620002bb565b600033905090565b6000600b60009054906101000a900473ffffffffffffffffffffffffffffffffffffffff16905081600b60006101000a81548173ffffffffffffffffffffffffffffffffffffffff021916908373ffffffffffffffffffffffffffffffffffffffff1602179055508173ffffffffffffffffffffffffffffffffffffffff168173ffffffffffffffffffffffffffffffffffffffff167f8be0079c531659141344cd1fd0a4f28419497f9722a3daafe3b4186f6b6457e060405160405180910390a35050565b828054620001b49062000256565b90600052602060002090601f016020900481019282620001d8576000855562000224565b82601f10620001f357805160ff191683800117855562000224565b8280016001018555821562000224579182015b828111156200022357825182559160200191906001019062000206565b5b50905062000233919062000237565b5090565b5b808211156200025257600081600090555060010162000238565b5090565b600060028204905060018216806200026f57607f821691505b602082108114156200028657620002856200028c565b5b50919050565b7f4e487b7100000000000000000000000000000000000000000000000000000000600052602260045260246000fd5b61382880620002cb6000396000f3fe608060405234801561001057600080fd5b50600436106101375760003560e01c806370a08231116100b8578063a5c42ef11161007c578063a5c42ef11461034e578063b88d4fde1461036c578063c87b56dd14610388578063d85d3d27146103b8578063e985e9c5146103e8578063f2fde38b1461041857610137565b806370a08231146102bc578063715018a6146102ec5780638da5cb5b146102f657806395d89b4114610314578063a22cb4651461033257610137565b806323b872dd116100ff57806323b872dd146101f45780632f745c591461021057806342842e0e146102405780634f6ccce71461025c5780636352211e1461028c57610137565b806301ffc9a71461013c57806306fdde031461016c578063081812fc1461018a578063095ea7b3146101ba57806318160ddd146101d6575b600080fd5b61015660048036038101906101519190612672565b610434565b6040516101639190612b45565b60405180910390f35b610174610446565b6040516101819190612b60565b60405180910390f35b6101a4600480360381019061019f9190612705565b6104d8565b6040516101b19190612ade565b60405180910390f35b6101d460048036038101906101cf9190612636565b61055d565b005b6101de610675565b6040516101eb9190612e02565b60405180910390f35b61020e60048036038101906102099190612530565b610682565b005b61022a60048036038101906102259190612636565b6106e2565b6040516102379190612e02565b60405180910390f35b61025a60048036038101906102559190612530565b610787565b005b61027660048036038101906102719190612705565b6107a7565b6040516102839190612e02565b60405180910390f35b6102a660048036038101906102a19190612705565b61083e565b6040516102b39190612ade565b60405180910390f35b6102d660048036038101906102d191906124cb565b6108f0565b6040516102e39190612e02565b60405180910390f35b6102f46109a8565b005b6102fe610a30565b60405161030b9190612ade565b60405180910390f35b61031c610a5a565b6040516103299190612b60565b60405180910390f35b61034c600480360381019061034791906125fa565b610aec565b005b610356610b02565b6040516103639190612e02565b60405180910390f35b6103866004803603810190610381919061257f565b610b08565b005b6103a2600480360381019061039d9190612705565b610b6a565b6040516103af9190612b60565b60405180910390f35b6103d260048036038101906103cd91906126c4565b610b7c565b6040516103df9190612e02565b60405180910390f35b61040260048036038101906103fd91906124f4565b610bb8565b60405161040f9190612b45565b60405180910390f35b610432600480360381019061042d91906124cb565b610c4c565b005b600061043f82610d44565b9050919050565b60606000805461045590613058565b80601f016020809104026020016040519081016040528092919081815260200182805461048190613058565b80156104ce5780601f106104a3576101008083540402835291602001916104ce565b820191906000526020600020905b8154815290600101906020018083116104b157829003601f168201915b5050505050905090565b60006104e382610dbe565b610522576040517f08c379a000000000000000000000000000000000000000000000000000000000815260040161051990612d42565b60405180910390fd5b6004600083815260200190815260200160002060009054906101000a900473ffffffffffffffffffffffffffffffffffffffff169050919050565b60006105688261083e565b90508073ffffffffffffffffffffffffffffffffffffffff168373ffffffffffffffffffffffffffffffffffffffff1614156105d9576040517f08c379a00000000000000000000000000000000000000000000000000000000081526004016105d090612da2565b60405180910390fd5b8073ffffffffffffffffffffffffffffffffffffffff166105f8610e2a565b73ffffffffffffffffffffffffffffffffffffffff161480610627575061062681610621610e2a565b610bb8565b5b610666576040517f08c379a000000000000000000000000000000000000000000000000000000000815260040161065d90612c82565b60405180910390fd5b6106708383610e32565b505050565b6000600880549050905090565b61069361068d610e2a565b82610eeb565b6106d2576040517f08c379a00000000000000000000000000000000000000000000000000000000081526004016106c990612dc2565b60405180910390fd5b6106dd838383610fc9565b505050565b60006106ed836108f0565b821061072e576040517f08c379a000000000000000000000000000000000000000000000000000000000815260040161072590612b82565b60405180910390fd5b600660008473ffffffffffffffffffffffffffffffffffffffff1673ffffffffffffffffffffffffffffffffffffffff168152602001908152602001600020600083815260200190815260200160002054905092915050565b6107a283838360405180602001604052806000815250610b08565b505050565b60006107b1610675565b82106107f2576040517f08c379a00000000000000000000000000000000000000000000000000000000081526004016107e990612de2565b60405180910390fd5b6008828154811061082c577f4e487b7100000000000000000000000000000000000000000000000000000000600052603260045260246000fd5b90600052602060002001549050919050565b6000806002600084815260200190815260200160002060009054906101000a900473ffffffffffffffffffffffffffffffffffffffff169050600073ffffffffffffffffffffffffffffffffffffffff168173ffffffffffffffffffffffffffffffffffffffff1614156108e7576040517f08c379a00000000000000000000000000000000000000000000000000000000081526004016108de90612cc2565b60405180910390fd5b80915050919050565b60008073ffffffffffffffffffffffffffffffffffffffff168273ffffffffffffffffffffffffffffffffffffffff161415610961576040517f08c379a000000000000000000000000000000000000000000000000000000000815260040161095890612ca2565b60405180910390fd5b600360008373ffffffffffffffffffffffffffffffffffffffff1673ffffffffffffffffffffffffffffffffffffffff168152602001908152602001600020549050919050565b6109b0610e2a565b73ffffffffffffffffffffffffffffffffffffffff166109ce610a30565b73ffffffffffffffffffffffffffffffffffffffff1614610a24576040517f08c379a0000000000000000000000000000000000000000000000000000000008152600401610a1b90612d62565b60405180910390fd5b610a2e6000611230565b565b6000600b60009054906101000a900473ffffffffffffffffffffffffffffffffffffffff16905090565b606060018054610a6990613058565b80601f0160208091040260200160405190810160405280929190818152602001828054610a9590613058565b8015610ae25780601f10610ab757610100808354040283529160200191610ae2565b820191906000526020600020905b815481529060010190602001808311610ac557829003601f168201915b5050505050905090565b610afe610af7610e2a565b83836112f6565b5050565b600c5481565b610b19610b13610e2a565b83610eeb565b610b58576040517f08c379a0000000000000000000000000000000000000000000000000000000008152600401610b4f90612dc2565b60405180910390fd5b610b6484848484611463565b50505050565b6060610b75826114bf565b9050919050565b6000600c6000815480929190610b91906130bb565b9190505550610ba233600c54611611565b610bae600c548361162f565b600c549050919050565b6000600560008473ffffffffffffffffffffffffffffffffffffffff1673ffffffffffffffffffffffffffffffffffffffff16815260200190815260200160002060008373ffffffffffffffffffffffffffffffffffffffff1673ffffffffffffffffffffffffffffffffffffffff16815260200190815260200160002060009054906101000a900460ff16905092915050565b610c54610e2a565b73ffffffffffffffffffffffffffffffffffffffff16610c72610a30565b73ffffffffffffffffffffffffffffffffffffffff1614610cc8576040517f08c379a0000000000000000000000000000000000000000000000000000000008152600401610cbf90612d62565b60405180910390fd5b600073ffffffffffffffffffffffffffffffffffffffff168173ffffffffffffffffffffffffffffffffffffffff161415610d38576040517f08c379a0000000000000000000000000000000000000000000000000000000008152600401610d2f90612bc2565b60405180910390fd5b610d4181611230565b50565b60007f780e9d63000000000000000000000000000000000000000000000000000000007bffffffffffffffffffffffffffffffffffffffffffffffffffffffff1916827bffffffffffffffffffffffffffffffffffffffffffffffffffffffff19161480610db75750610db6826116a3565b5b9050919050565b60008073ffffffffffffffffffffffffffffffffffffffff166002600084815260200190815260200160002060009054906101000a900473ffffffffffffffffffffffffffffffffffffffff1673ffffffffffffffffffffffffffffffffffffffff1614159050919050565b600033905090565b816004600083815260200190815260200160002060006101000a81548173ffffffffffffffffffffffffffffffffffffffff021916908373ffffffffffffffffffffffffffffffffffffffff160217905550808273ffffffffffffffffffffffffffffffffffffffff16610ea58361083e565b73ffffffffffffffffffffffffffffffffffffffff167f8c5be1e5ebec7d5bd14f71427d1e84f3dd0314c0f7b2291e5b200ac8c7c3b92560405160405180910390a45050565b6000610ef682610dbe565b610f35576040517f08c379a0000000000000000000000000000000000000000000000000000000008152600401610f2c90612c62565b60405180910390fd5b6000610f408361083e565b90508073ffffffffffffffffffffffffffffffffffffffff168473ffffffffffffffffffffffffffffffffffffffff161480610faf57508373ffffffffffffffffffffffffffffffffffffffff16610f97846104d8565b73ffffffffffffffffffffffffffffffffffffffff16145b80610fc05750610fbf8185610bb8565b5b91505092915050565b8273ffffffffffffffffffffffffffffffffffffffff16610fe98261083e565b73ffffffffffffffffffffffffffffffffffffffff161461103f576040517f08c379a000000000000000000000000000000000000000000000000000000000815260040161103690612be2565b60405180910390fd5b600073ffffffffffffffffffffffffffffffffffffffff168273ffffffffffffffffffffffffffffffffffffffff1614156110af576040517f08c379a00000000000000000000000000000000000000000000000000000000081526004016110a690612c22565b60405180910390fd5b6110ba838383611785565b6110c5600082610e32565b6001600360008573ffffffffffffffffffffffffffffffffffffffff1673ffffffffffffffffffffffffffffffffffffffff16815260200190815260200160002060008282546111159190612f6e565b925050819055506001600360008473ffffffffffffffffffffffffffffffffffffffff1673ffffffffffffffffffffffffffffffffffffffff168152602001908152602001600020600082825461116c9190612ee7565b92505081905550816002600083815260200190815260200160002060006101000a81548173ffffffffffffffffffffffffffffffffffffffff021916908373ffffffffffffffffffffffffffffffffffffffff160217905550808273ffffffffffffffffffffffffffffffffffffffff168473ffffffffffffffffffffffffffffffffffffffff167fddf252ad1be2c89b69c2b068fc378daa952ba7f163c4a11628f55a4df523b3ef60405160405180910390a461122b838383611795565b505050565b6000600b60009054906101000a900473ffffffffffffffffffffffffffffffffffffffff16905081600b60006101000a81548173ffffffffffffffffffffffffffffffffffffffff021916908373ffffffffffffffffffffffffffffffffffffffff1602179055508173ffffffffffffffffffffffffffffffffffffffff168173ffffffffffffffffffffffffffffffffffffffff167f8be0079c531659141344cd1fd0a4f28419497f9722a3daafe3b4186f6b6457e060405160405180910390a35050565b8173ffffffffffffffffffffffffffffffffffffffff168373ffffffffffffffffffffffffffffffffffffffff161415611365576040517f08c379a000000000000000000000000000000000000000000000000000000000815260040161135c90612c42565b60405180910390fd5b80600560008573ffffffffffffffffffffffffffffffffffffffff1673ffffffffffffffffffffffffffffffffffffffff16815260200190815260200160002060008473ffffffffffffffffffffffffffffffffffffffff1673ffffffffffffffffffffffffffffffffffffffff16815260200190815260200160002060006101000a81548160ff0219169083151502179055508173ffffffffffffffffffffffffffffffffffffffff168373ffffffffffffffffffffffffffffffffffffffff167f17307eab39ab6107e8899845ad3d59bd9653f200f220920489ca2b5937696c31836040516114569190612b45565b60405180910390a3505050565b61146e848484610fc9565b61147a8484848461179a565b6114b9576040517f08c379a00000000000000000000000000000000000000000000000000000000081526004016114b090612ba2565b60405180910390fd5b50505050565b60606114ca82610dbe565b611509576040517f08c379a000000000000000000000000000000000000000000000000000000000815260040161150090612d22565b60405180910390fd5b6000600a6000848152602001908152602001600020805461152990613058565b80601f016020809104026020016040519081016040528092919081815260200182805461155590613058565b80156115a25780601f10611577576101008083540402835291602001916115a2565b820191906000526020600020905b81548152906001019060200180831161158557829003601f168201915b5050505050905060006115b3611931565b90506000815114156115c957819250505061160c565b6000825111156115fe5780826040516020016115e6929190612aba565b6040516020818303038152906040529250505061160c565b61160784611948565b925050505b919050565b61162b8282604051806020016040528060008152506119ef565b5050565b61163882610dbe565b611677576040517f08c379a000000000000000000000000000000000000000000000000000000000815260040161166e90612ce2565b60405180910390fd5b80600a6000848152602001908152602001600020908051906020019061169e9291906122ef565b505050565b60007f80ac58cd000000000000000000000000000000000000000000000000000000007bffffffffffffffffffffffffffffffffffffffffffffffffffffffff1916827bffffffffffffffffffffffffffffffffffffffffffffffffffffffff1916148061176e57507f5b5e139f000000000000000000000000000000000000000000000000000000007bffffffffffffffffffffffffffffffffffffffffffffffffffffffff1916827bffffffffffffffffffffffffffffffffffffffffffffffffffffffff1916145b8061177e575061177d82611a4a565b5b9050919050565b611790838383611ab4565b505050565b505050565b60006117bb8473ffffffffffffffffffffffffffffffffffffffff16611bc8565b15611924578373ffffffffffffffffffffffffffffffffffffffff1663150b7a026117e4610e2a565b8786866040518563ffffffff1660e01b81526004016118069493929190612af9565b602060405180830381600087803b15801561182057600080fd5b505af192505050801561185157506040513d601f19601f8201168201806040525081019061184e919061269b565b60015b6118d4573d8060008114611881576040519150601f19603f3d011682016040523d82523d6000602084013e611886565b606091505b506000815114156118cc576040517f08c379a00000000000000000000000000000000000000000000000000000000081526004016118c390612ba2565b60405180910390fd5b805181602001fd5b63150b7a0260e01b7bffffffffffffffffffffffffffffffffffffffffffffffffffffffff1916817bffffffffffffffffffffffffffffffffffffffffffffffffffffffff191614915050611929565b600190505b949350505050565b606060405180602001604052806000815250905090565b606061195382610dbe565b611992576040517f08c379a000000000000000000000000000000000000000000000000000000000815260040161198990612d82565b60405180910390fd5b600061199c611931565b905060008151116119bc57604051806020016040528060008152506119e7565b806119c684611beb565b6040516020016119d7929190612aba565b6040516020818303038152906040525b915050919050565b6119f98383611d98565b611a06600084848461179a565b611a45576040517f08c379a0000000000000000000000000000000000000000000000000000000008152600401611a3c90612ba2565b60405180910390fd5b505050565b60007f01ffc9a7000000000000000000000000000000000000000000000000000000007bffffffffffffffffffffffffffffffffffffffffffffffffffffffff1916827bffffffffffffffffffffffffffffffffffffffffffffffffffffffff1916149050919050565b611abf838383611f72565b600073ffffffffffffffffffffffffffffffffffffffff168373ffffffffffffffffffffffffffffffffffffffff161415611b0257611afd81611f77565b611b41565b8173ffffffffffffffffffffffffffffffffffffffff168373ffffffffffffffffffffffffffffffffffffffff1614611b4057611b3f8382611fc0565b5b5b600073ffffffffffffffffffffffffffffffffffffffff168273ffffffffffffffffffffffffffffffffffffffff161415611b8457611b7f8161212d565b611bc3565b8273ffffffffffffffffffffffffffffffffffffffff168273ffffffffffffffffffffffffffffffffffffffff1614611bc257611bc18282612270565b5b5b505050565b6000808273ffffffffffffffffffffffffffffffffffffffff163b119050919050565b60606000821415611c33576040518060400160405280600181526020017f30000000000000000000000000000000000000000000000000000000000000008152509050611d93565b600082905060005b60008214611c65578080611c4e906130bb565b915050600a82611c5e9190612f3d565b9150611c3b565b60008167ffffffffffffffff811115611ca7577f4e487b7100000000000000000000000000000000000000000000000000000000600052604160045260246000fd5b6040519080825280601f01601f191660200182016040528015611cd95781602001600182028036833780820191505090505b5090505b60008514611d8c57600182611cf29190612f6e565b9150600a85611d019190613104565b6030611d0d9190612ee7565b60f81b818381518110611d49577f4e487b7100000000000000000000000000000000000000000000000000000000600052603260045260246000fd5b60200101907effffffffffffffffffffffffffffffffffffffffffffffffffffffffffffff1916908160001a905350600a85611d859190612f3d565b9450611cdd565b8093505050505b919050565b600073ffffffffffffffffffffffffffffffffffffffff168273ffffffffffffffffffffffffffffffffffffffff161415611e08576040517f08c379a0000000000000000000000000000000000000000000000000000000008152600401611dff90612d02565b60405180910390fd5b611e1181610dbe565b15611e51576040517f08c379a0000000000000000000000000000000000000000000000000000000008152600401611e4890612c02565b60405180910390fd5b611e5d60008383611785565b6001600360008473ffffffffffffffffffffffffffffffffffffffff1673ffffffffffffffffffffffffffffffffffffffff1681526020019081526020016000206000828254611ead9190612ee7565b92505081905550816002600083815260200190815260200160002060006101000a81548173ffffffffffffffffffffffffffffffffffffffff021916908373ffffffffffffffffffffffffffffffffffffffff160217905550808273ffffffffffffffffffffffffffffffffffffffff16600073ffffffffffffffffffffffffffffffffffffffff167fddf252ad1be2c89b69c2b068fc378daa952ba7f163c4a11628f55a4df523b3ef60405160405180910390a4611f6e60008383611795565b5050565b505050565b6008805490506009600083815260200190815260200160002081905550600881908060018154018082558091505060019003906000526020600020016000909190919091505550565b60006001611fcd846108f0565b611fd79190612f6e565b90506000600760008481526020019081526020016000205490508181146120bc576000600660008673ffffffffffffffffffffffffffffffffffffffff1673ffffffffffffffffffffffffffffffffffffffff168152602001908152602001600020600084815260200190815260200160002054905080600660008773ffffffffffffffffffffffffffffffffffffffff1673ffffffffffffffffffffffffffffffffffffffff168152602001908152602001600020600084815260200190815260200160002081905550816007600083815260200190815260200160002081905550505b6007600084815260200190815260200160002060009055600660008573ffffffffffffffffffffffffffffffffffffffff1673ffffffffffffffffffffffffffffffffffffffff16815260200190815260200160002060008381526020019081526020016000206000905550505050565b600060016008805490506121419190612f6e565b9050600060096000848152602001908152602001600020549050600060088381548110612197577f4e487b7100000000000000000000000000000000000000000000000000000000600052603260045260246000fd5b9060005260206000200154905080600883815481106121df577f4e487b7100000000000000000000000000000000000000000000000000000000600052603260045260246000fd5b906000526020600020018190555081600960008381526020019081526020016000208190555060096000858152602001908152602001600020600090556008805480612254577f4e487b7100000000000000000000000000000000000000000000000000000000600052603160045260246000fd5b6001900381819060005260206000200160009055905550505050565b600061227b836108f0565b905081600660008573ffffffffffffffffffffffffffffffffffffffff1673ffffffffffffffffffffffffffffffffffffffff168152602001908152602001600020600083815260200190815260200160002081905550806007600084815260200190815260200160002081905550505050565b8280546122fb90613058565b90600052602060002090601f01602090048101928261231d5760008555612364565b82601f1061233657805160ff1916838001178555612364565b82800160010185558215612364579182015b82811115612363578251825591602001919060010190612348565b5b5090506123719190612375565b5090565b5b8082111561238e576000816000905550600101612376565b5090565b60006123a56123a084612e42565b612e1d565b9050828152602081018484840111156123bd57600080fd5b6123c8848285613016565b509392505050565b60006123e36123de84612e73565b612e1d565b9050828152602081018484840111156123fb57600080fd5b612406848285613016565b509392505050565b60008135905061241d81613796565b92915050565b600081359050612432816137ad565b92915050565b600081359050612447816137c4565b92915050565b60008151905061245c816137c4565b92915050565b600082601f83011261247357600080fd5b8135612483848260208601612392565b91505092915050565b600082601f83011261249d57600080fd5b81356124ad8482602086016123d0565b91505092915050565b6000813590506124c5816137db565b92915050565b6000602082840312156124dd57600080fd5b60006124eb8482850161240e565b91505092915050565b6000806040838503121561250757600080fd5b60006125158582860161240e565b92505060206125268582860161240e565b9150509250929050565b60008060006060848603121561254557600080fd5b60006125538682870161240e565b93505060206125648682870161240e565b9250506040612575868287016124b6565b9150509250925092565b6000806000806080858703121561259557600080fd5b60006125a38782880161240e565b94505060206125b48782880161240e565b93505060406125c5878288016124b6565b925050606085013567ffffffffffffffff8111156125e257600080fd5b6125ee87828801612462565b91505092959194509250565b6000806040838503121561260d57600080fd5b600061261b8582860161240e565b925050602061262c85828601612423565b9150509250929050565b6000806040838503121561264957600080fd5b60006126578582860161240e565b9250506020612668858286016124b6565b9150509250929050565b60006020828403121561268457600080fd5b600061269284828501612438565b91505092915050565b6000602082840312156126ad57600080fd5b60006126bb8482850161244d565b91505092915050565b6000602082840312156126d657600080fd5b600082013567ffffffffffffffff8111156126f057600080fd5b6126fc8482850161248c565b91505092915050565b60006020828403121561271757600080fd5b6000612725848285016124b6565b91505092915050565b61273781612fa2565b82525050565b61274681612fb4565b82525050565b600061275782612ea4565b6127618185612eba565b9350612771818560208601613025565b61277a816131f1565b840191505092915050565b600061279082612eaf565b61279a8185612ecb565b93506127aa818560208601613025565b6127b3816131f1565b840191505092915050565b60006127c982612eaf565b6127d38185612edc565b93506127e3818560208601613025565b80840191505092915050565b60006127fc602b83612ecb565b915061280782613202565b604082019050919050565b600061281f603283612ecb565b915061282a82613251565b604082019050919050565b6000612842602683612ecb565b915061284d826132a0565b604082019050919050565b6000612865602583612ecb565b9150612870826132ef565b604082019050919050565b6000612888601c83612ecb565b91506128938261333e565b602082019050919050565b60006128ab602483612ecb565b91506128b682613367565b604082019050919050565b60006128ce601983612ecb565b91506128d9826133b6565b602082019050919050565b60006128f1602c83612ecb565b91506128fc826133df565b604082019050919050565b6000612914603883612ecb565b915061291f8261342e565b604082019050919050565b6000612937602a83612ecb565b91506129428261347d565b604082019050919050565b600061295a602983612ecb565b9150612965826134cc565b604082019050919050565b600061297d602e83612ecb565b91506129888261351b565b604082019050919050565b60006129a0602083612ecb565b91506129ab8261356a565b602082019050919050565b60006129c3603183612ecb565b91506129ce82613593565b604082019050919050565b60006129e6602c83612ecb565b91506129f1826135e2565b604082019050919050565b6000612a09602083612ecb565b9150612a1482613631565b602082019050919050565b6000612a2c602f83612ecb565b9150612a378261365a565b604082019050919050565b6000612a4f602183612ecb565b9150612a5a826136a9565b604082019050919050565b6000612a72603183612ecb565b9150612a7d826136f8565b604082019050919050565b6000612a95602c83612ecb565b9150612aa082613747565b604082019050919050565b612ab48161300c565b82525050565b6000612ac682856127be565b9150612ad282846127be565b91508190509392505050565b6000602082019050612af3600083018461272e565b92915050565b6000608082019050612b0e600083018761272e565b612b1b602083018661272e565b612b286040830185612aab565b8181036060830152612b3a818461274c565b905095945050505050565b6000602082019050612b5a600083018461273d565b92915050565b60006020820190508181036000830152612b7a8184612785565b905092915050565b60006020820190508181036000830152612b9b816127ef565b9050919050565b60006020820190508181036000830152612bbb81612812565b9050919050565b60006020820190508181036000830152612bdb81612835565b9050919050565b60006020820190508181036000830152612bfb81612858565b9050919050565b60006020820190508181036000830152612c1b8161287b565b9050919050565b60006020820190508181036000830152612c3b8161289e565b9050919050565b60006020820190508181036000830152612c5b816128c1565b9050919050565b60006020820190508181036000830152612c7b816128e4565b9050919050565b60006020820190508181036000830152612c9b81612907565b9050919050565b60006020820190508181036000830152612cbb8161292a565b9050919050565b60006020820190508181036000830152612cdb8161294d565b9050919050565b60006020820190508181036000830152612cfb81612970565b9050919050565b60006020820190508181036000830152612d1b81612993565b9050919050565b60006020820190508181036000830152612d3b816129b6565b9050919050565b60006020820190508181036000830152612d5b816129d9565b9050919050565b60006020820190508181036000830152612d7b816129fc565b9050919050565b60006020820190508181036000830152612d9b81612a1f565b9050919050565b60006020820190508181036000830152612dbb81612a42565b9050919050565b60006020820190508181036000830152612ddb81612a65565b9050919050565b60006020820190508181036000830152612dfb81612a88565b9050919050565b6000602082019050612e176000830184612aab565b92915050565b6000612e27612e38565b9050612e33828261308a565b919050565b6000604051905090565b600067ffffffffffffffff821115612e5d57612e5c6131c2565b5b612e66826131f1565b9050602081019050919050565b600067ffffffffffffffff821115612e8e57612e8d6131c2565b5b612e97826131f1565b9050602081019050919050565b600081519050919050565b600081519050919050565b600082825260208201905092915050565b600082825260208201905092915050565b600081905092915050565b6000612ef28261300c565b9150612efd8361300c565b9250827fffffffffffffffffffffffffffffffffffffffffffffffffffffffffffffffff03821115612f3257612f31613135565b5b828201905092915050565b6000612f488261300c565b9150612f538361300c565b925082612f6357612f62613164565b5b828204905092915050565b6000612f798261300c565b9150612f848361300c565b925082821015612f9757612f96613135565b5b828203905092915050565b6000612fad82612fec565b9050919050565b60008115159050919050565b60007fffffffff0000000000000000000000000000000000000000000000000000000082169050919050565b600073ffffffffffffffffffffffffffffffffffffffff82169050919050565b6000819050919050565b82818337600083830152505050565b60005b83811015613043578082015181840152602081019050613028565b83811115613052576000848401525b50505050565b6000600282049050600182168061307057607f821691505b6020821081141561308457613083613193565b5b50919050565b613093826131f1565b810181811067ffffffffffffffff821117156130b2576130b16131c2565b5b80604052505050565b60006130c68261300c565b91507fffffffffffffffffffffffffffffffffffffffffffffffffffffffffffffffff8214156130f9576130f8613135565b5b600182019050919050565b600061310f8261300c565b915061311a8361300c565b92508261312a57613129613164565b5b828206905092915050565b7f4e487b7100000000000000000000000000000000000000000000000000000000600052601160045260246000fd5b7f4e487b7100000000000000000000000000000000000000000000000000000000600052601260045260246000fd5b7f4e487b7100000000000000000000000000000000000000000000000000000000600052602260045260246000fd5b7f4e487b7100000000000000000000000000000000000000000000000000000000600052604160045260246000fd5b6000601f19601f8301169050919050565b7f455243373231456e756d657261626c653a206f776e657220696e646578206f7560008201527f74206f6620626f756e6473000000000000000000000000000000000000000000602082015250565b7f4552433732313a207472616e7366657220746f206e6f6e20455243373231526560008201527f63656976657220696d706c656d656e7465720000000000000000000000000000602082015250565b7f4f776e61626c653a206e6577206f776e657220697320746865207a65726f206160008201527f6464726573730000000000000000000000000000000000000000000000000000602082015250565b7f4552433732313a207472616e736665722066726f6d20696e636f72726563742060008201527f6f776e6572000000000000000000000000000000000000000000000000000000602082015250565b7f4552433732313a20746f6b656e20616c7265616479206d696e74656400000000600082015250565b7f4552433732313a207472616e7366657220746f20746865207a65726f2061646460008201527f7265737300000000000000000000000000000000000000000000000000000000602082015250565b7f4552433732313a20617070726f766520746f2063616c6c657200000000000000600082015250565b7f4552433732313a206f70657261746f7220717565727920666f72206e6f6e657860008201527f697374656e7420746f6b656e0000000000000000000000000000000000000000602082015250565b7f4552433732313a20617070726f76652063616c6c6572206973206e6f74206f7760008201527f6e6572206e6f7220617070726f76656420666f7220616c6c0000000000000000602082015250565b7f4552433732313a2062616c616e636520717565727920666f7220746865207a6560008201527f726f206164647265737300000000000000000000000000000000000000000000602082015250565b7f4552433732313a206f776e657220717565727920666f72206e6f6e657869737460008201527f656e7420746f6b656e0000000000000000000000000000000000000000000000602082015250565b7f45524337323155524953746f726167653a2055524920736574206f66206e6f6e60008201527f6578697374656e7420746f6b656e000000000000000000000000000000000000602082015250565b7f4552433732313a206d696e7420746f20746865207a65726f2061646472657373600082015250565b7f45524337323155524953746f726167653a2055524920717565727920666f722060008201527f6e6f6e6578697374656e7420746f6b656e000000000000000000000000000000602082015250565b7f4552433732313a20617070726f76656420717565727920666f72206e6f6e657860008201527f697374656e7420746f6b656e0000000000000000000000000000000000000000602082015250565b7f4f776e61626c653a2063616c6c6572206973206e6f7420746865206f776e6572600082015250565b7f4552433732314d657461646174613a2055524920717565727920666f72206e6f60008201527f6e6578697374656e7420746f6b656e0000000000000000000000000000000000602082015250565b7f4552433732313a20617070726f76616c20746f2063757272656e74206f776e6560008201527f7200000000000000000000000000000000000000000000000000000000000000602082015250565b7f4552433732313a207472616e736665722063616c6c6572206973206e6f74206f60008201527f776e6572206e6f7220617070726f766564000000000000000000000000000000602082015250565b7f455243373231456e756d657261626c653a20676c6f62616c20696e646578206f60008201527f7574206f6620626f756e64730000000000000000000000000000000000000000602082015250565b61379f81612fa2565b81146137aa57600080fd5b50565b6137b681612fb4565b81146137c157600080fd5b50565b6137cd81612fc0565b81146137d857600080fd5b50565b6137e48161300c565b81146137ef57600080fd5b5056fea2646970667358221220a18e84acf6727a8218993cf2eb101d4b1d31c268478b8d4dca65813a6826c7c964736f6c63430008040033",
  "linkReferences": {},
  "deployedLinkReferences": {}
}