{
  "_format": "hh-sol-artifact-1",
  "contractName": "NFTMarketplace",
  "sourceName": "contracts/NFTMarketplace.sol",
  "abi": [
    {
      "inputs": [],
      "name": "africaPrintCount",
      "outputs": [
        {
          "internalType": "uint256",
          "name": "",
          "type": "uint256"
        }
      ],
      "stateMutability": "view",
      "type": "function"
    },
    {
      "inputs": [
        {
          "internalType": "uint256",
          "name": "",
          "type": "uint256"
        }
      ],
      "name": "africaPrints",
      "outputs": [
        {
          "internalType": "contract IERC721",
          "name": "nft",
          "type": "address"
        },
        {
          "internalType": "uint256",
          "name": "tokenId",
          "type": "uint256"
        },
        {
          "internalType": "uint256",
          "name": "price",
          "type": "uint256"
        },
        {
          "internalType": "address payable",
          "name": "seller",
          "type": "address"
        },
        {
          "internalType": "bool",
          "name": "sold",
          "type": "bool"
        },
        {
          "internalType": "bool",
          "name": "forSale",
          "type": "bool"
        }
      ],
      "stateMutability": "view",
      "type": "function"
    },
    {
      "inputs": [
        {
          "internalType": "uint256",
          "name": "_tokenId",
          "type": "uint256"
        }
      ],
      "name": "buyAfricaPrint",
      "outputs": [],
      "stateMutability": "payable",
      "type": "function"
    },
    {
      "inputs": [
        {
          "internalType": "uint256",
          "name": "_tokenId",
          "type": "uint256"
        }
      ],
      "name": "getAfricaPrint",
      "outputs": [
        {
          "components": [
            {
              "internalType": "contract IERC721",
              "name": "nft",
              "type": "address"
            },
            {
              "internalType": "uint256",
              "name": "tokenId",
              "type": "uint256"
            },
            {
              "internalType": "uint256",
              "name": "price",
              "type": "uint256"
            },
            {
              "internalType": "address payable",
              "name": "seller",
              "type": "address"
            },
            {
              "internalType": "bool",
              "name": "sold",
              "type": "bool"
            },
            {
              "internalType": "bool",
              "name": "forSale",
              "type": "bool"
            }
          ],
          "internalType": "struct NFTMarketplace.AfricaPrint",
          "name": "",
          "type": "tuple"
        }
      ],
      "stateMutability": "view",
      "type": "function"
    },
    {
      "inputs": [],
      "name": "getAfricaPrintCount",
      "outputs": [
        {
          "internalType": "uint256",
          "name": "",
          "type": "uint256"
        }
      ],
      "stateMutability": "view",
      "type": "function"
    },
    {
      "inputs": [
        {
          "internalType": "contract IERC721",
          "name": "_nft",
          "type": "address"
        },
        {
          "internalType": "uint256",
          "name": "_tokenId",
          "type": "uint256"
        },
        {
          "internalType": "uint256",
          "name": "_price",
          "type": "uint256"
        }
      ],
      "name": "listAfricaPrint",
      "outputs": [],
      "stateMutability": "nonpayable",
      "type": "function"
    },
    {
      "inputs": [
        {
          "internalType": "uint256",
          "name": "_africaPrintPrice",
          "type": "uint256"
        },
        {
          "internalType": "uint256",
          "name": "_tokenId",
          "type": "uint256"
        }
      ],
      "name": "modifyAfricaPrintPrice",
      "outputs": [],
      "stateMutability": "payable",
      "type": "function"
    },
    {
      "inputs": [
        {
          "internalType": "uint256",
          "name": "_tokenId",
          "type": "uint256"
        }
      ],
      "name": "toggleForSale",
      "outputs": [],
      "stateMutability": "nonpayable",
      "type": "function"
    }
  ],
  "bytecode": "0x60806040526000805534801561001457600080fd5b50611215806100246000396000f3fe60806040526004361061007b5760003560e01c8063c520c1f91161004e578063c520c1f91461011b578063c52f4c2f14610144578063e10494e314610160578063fd873bbc1461019d5761007b565b806318a56e1d1461008057806356235f81146100ab5780639e69de71146100c7578063a32018b9146100f2575b600080fd5b34801561008c57600080fd5b506100956101df565b6040516100a29190610ea3565b60405180910390f35b6100c560048036038101906100c09190610b20565b6101e8565b005b3480156100d357600080fd5b506100dc6102ab565b6040516100e99190610ea3565b60405180910390f35b3480156100fe57600080fd5b5061011960048036038101906101149190610af7565b6102b1565b005b34801561012757600080fd5b50610142600480360381019061013d9190610aa8565b6103b9565b005b61015e60048036038101906101599190610af7565b6105df565b005b34801561016c57600080fd5b5061018760048036038101906101829190610af7565b61085f565b6040516101949190610e88565b60405180910390f35b3480156101a957600080fd5b506101c460048036038101906101bf9190610af7565b610982565b6040516101d696959493929190610d67565b60405180910390f35b60008054905090565b3373ffffffffffffffffffffffffffffffffffffffff166001600083815260200190815260200160002060030160009054906101000a900473ffffffffffffffffffffffffffffffffffffffff1673ffffffffffffffffffffffffffffffffffffffff161461028c576040517f08c379a000000000000000000000000000000000000000000000000000000000815260040161028390610e68565b60405180910390fd5b8160016000838152602001908152602001600020600201819055505050565b60005481565b6000600160008381526020019081526020016000209050600073ffffffffffffffffffffffffffffffffffffffff163373ffffffffffffffffffffffffffffffffffffffff16141561030257600080fd5b3373ffffffffffffffffffffffffffffffffffffffff168160030160009054906101000a900473ffffffffffffffffffffffffffffffffffffffff1673ffffffffffffffffffffffffffffffffffffffff161461035e57600080fd5b8060030160159054906101000a900460ff16156103975760008160030160156101000a81548160ff0219169083151502179055506103b5565b60018160030160156101000a81548160ff0219169083151502179055505b5050565b600081116103fc576040517f08c379a00000000000000000000000000000000000000000000000000000000081526004016103f390610e28565b60405180910390fd5b60008081548092919061040e90610f5f565b91905055508273ffffffffffffffffffffffffffffffffffffffff166323b872dd3330856040518463ffffffff1660e01b815260040161045093929190610d30565b600060405180830381600087803b15801561046a57600080fd5b505af115801561047e573d6000803e3d6000fd5b505050506040518060c001604052808473ffffffffffffffffffffffffffffffffffffffff1681526020018381526020018281526020013373ffffffffffffffffffffffffffffffffffffffff16815260200160001515815260200160011515815250600160008054815260200190815260200160002060008201518160000160006101000a81548173ffffffffffffffffffffffffffffffffffffffff021916908373ffffffffffffffffffffffffffffffffffffffff160217905550602082015181600101556040820151816002015560608201518160030160006101000a81548173ffffffffffffffffffffffffffffffffffffffff021916908373ffffffffffffffffffffffffffffffffffffffff16021790555060808201518160030160146101000a81548160ff02191690831515021790555060a08201518160030160156101000a81548160ff021916908315150217905550905050505050565b6000600160008381526020019081526020016000209050600115158160030160159054906101000a900460ff1615151461064e576040517f08c379a000000000000000000000000000000000000000000000000000000000815260040161064590610dc8565b60405180910390fd5b60008211801561066057506000548211155b61069f576040517f08c379a000000000000000000000000000000000000000000000000000000000815260040161069690610e48565b60405180910390fd5b80600201543410156106e6576040517f08c379a00000000000000000000000000000000000000000000000000000000081526004016106dd90610de8565b60405180910390fd5b8060030160149054906101000a900460ff1615610738576040517f08c379a000000000000000000000000000000000000000000000000000000000815260040161072f90610e08565b60405180910390fd5b8060030160009054906101000a900473ffffffffffffffffffffffffffffffffffffffff1673ffffffffffffffffffffffffffffffffffffffff166108fc82600201549081150290604051600060405180830381858888f193505050501580156107a6573d6000803e3d6000fd5b5060018160030160146101000a81548160ff0219169083151502179055508060000160009054906101000a900473ffffffffffffffffffffffffffffffffffffffff1673ffffffffffffffffffffffffffffffffffffffff166323b872dd303384600101546040518463ffffffff1660e01b815260040161082993929190610d30565b600060405180830381600087803b15801561084357600080fd5b505af1158015610857573d6000803e3d6000fd5b505050505050565b610867610a18565b600160008381526020019081526020016000206040518060c00160405290816000820160009054906101000a900473ffffffffffffffffffffffffffffffffffffffff1673ffffffffffffffffffffffffffffffffffffffff1673ffffffffffffffffffffffffffffffffffffffff16815260200160018201548152602001600282015481526020016003820160009054906101000a900473ffffffffffffffffffffffffffffffffffffffff1673ffffffffffffffffffffffffffffffffffffffff1673ffffffffffffffffffffffffffffffffffffffff1681526020016003820160149054906101000a900460ff161515151581526020016003820160159054906101000a900460ff1615151515815250509050919050565b60016020528060005260406000206000915090508060000160009054906101000a900473ffffffffffffffffffffffffffffffffffffffff16908060010154908060020154908060030160009054906101000a900473ffffffffffffffffffffffffffffffffffffffff16908060030160149054906101000a900460ff16908060030160159054906101000a900460ff16905086565b6040518060c00160405280600073ffffffffffffffffffffffffffffffffffffffff1681526020016000815260200160008152602001600073ffffffffffffffffffffffffffffffffffffffff1681526020016000151581526020016000151581525090565b600081359050610a8d816111b1565b92915050565b600081359050610aa2816111c8565b92915050565b600080600060608486031215610abd57600080fd5b6000610acb86828701610a7e565b9350506020610adc86828701610a93565b9250506040610aed86828701610a93565b9150509250925092565b600060208284031215610b0957600080fd5b6000610b1784828501610a93565b91505092915050565b60008060408385031215610b3357600080fd5b6000610b4185828601610a93565b9250506020610b5285828601610a93565b9150509250929050565b610b6581610ee1565b82525050565b610b7481610ee1565b82525050565b610b8381610ecf565b82525050565b610b9281610ef3565b82525050565b610ba181610ef3565b82525050565b610bb081610f3b565b82525050565b610bbf81610f3b565b82525050565b6000610bd2602183610ebe565b9150610bdd82610fd7565b604082019050919050565b6000610bf5602283610ebe565b9150610c0082611026565b604082019050919050565b6000610c18602883610ebe565b9150610c2382611075565b604082019050919050565b6000610c3b602a83610ebe565b9150610c46826110c4565b604082019050919050565b6000610c5e602983610ebe565b9150610c6982611113565b604082019050919050565b6000610c81602983610ebe565b9150610c8c82611162565b604082019050919050565b60c082016000820151610cad6000850182610ba7565b506020820151610cc06020850182610d12565b506040820151610cd36040850182610d12565b506060820151610ce66060850182610b5c565b506080820151610cf96080850182610b89565b5060a0820151610d0c60a0850182610b89565b50505050565b610d1b81610f31565b82525050565b610d2a81610f31565b82525050565b6000606082019050610d456000830186610b7a565b610d526020830185610b7a565b610d5f6040830184610d21565b949350505050565b600060c082019050610d7c6000830189610bb6565b610d896020830188610d21565b610d966040830187610d21565b610da36060830186610b6b565b610db06080830185610b98565b610dbd60a0830184610b98565b979650505050505050565b60006020820190508181036000830152610de181610bc5565b9050919050565b60006020820190508181036000830152610e0181610be8565b9050919050565b60006020820190508181036000830152610e2181610c0b565b9050919050565b60006020820190508181036000830152610e4181610c2e565b9050919050565b60006020820190508181036000830152610e6181610c51565b9050919050565b60006020820190508181036000830152610e8181610c74565b9050919050565b600060c082019050610e9d6000830184610c97565b92915050565b6000602082019050610eb86000830184610d21565b92915050565b600082825260208201905092915050565b6000610eda82610f11565b9050919050565b6000610eec82610f11565b9050919050565b60008115159050919050565b6000610f0a82610ecf565b9050919050565b600073ffffffffffffffffffffffffffffffffffffffff82169050919050565b6000819050919050565b6000610f4682610f4d565b9050919050565b6000610f5882610f11565b9050919050565b6000610f6a82610f31565b91507fffffffffffffffffffffffffffffffffffffffffffffffffffffffffffffffff821415610f9d57610f9c610fa8565b5b600182019050919050565b7f4e487b7100000000000000000000000000000000000000000000000000000000600052601160045260246000fd5b7f7468697320206166726963617072696e74206973206e6f7420666f722073616c60008201527f6500000000000000000000000000000000000000000000000000000000000000602082015250565b7f4e46544d61726b6574706c6163653a206e6f7420656e6f7567682062616c616e60008201527f6365000000000000000000000000000000000000000000000000000000000000602082015250565b7f4e46544d61726b6574706c6163653a206166726963617072696e7420616c726560008201527f61647920736f6c64000000000000000000000000000000000000000000000000602082015250565b7f4e46544d61726b6574706c6163653a2050726963652073686f756c642062652060008201527f61626f7665207a65726f00000000000000000000000000000000000000000000602082015250565b7f4e46544d61726b6574706c6163653a206166726963617072696e7420646f657360008201527f6e27742065786973740000000000000000000000000000000000000000000000602082015250565b7f4e46544d61726b6574706c6163653a2043616e277420706572666f726d20747260008201527f616e73616374696f6e0000000000000000000000000000000000000000000000602082015250565b6111ba81610eff565b81146111c557600080fd5b50565b6111d181610f31565b81146111dc57600080fd5b5056fea264697066735822122032ab5155104a36ca1a93e4fe029c2f32a2d73709033ece4556d17ca70d686bc964736f6c63430008040033",
  "linkReferences": {},
  "deployedLinkReferences": {}
}