{
  "_format": "hh-sol-artifact-1",
  "contractName": "NFTMarketplace",
  "sourceName": "contracts/NFTMarketplace.sol",
  "abi": [
    {
      "inputs": [],
      "stateMutability": "nonpayable",
      "type": "constructor"
    },
    {
      "inputs": [],
      "name": "africaPrintCount",
      "outputs": [
        {
          "internalType": "uint256",
          "name": "",
          "type": "uint256"
        }
      ],
      "stateMutability": "view",
      "type": "function"
    },
    {
      "inputs": [
        {
          "internalType": "uint256",
          "name": "",
          "type": "uint256"
        }
      ],
      "name": "africaPrints",
      "outputs": [
        {
          "internalType": "contract IERC721",
          "name": "nft",
          "type": "address"
        },
        {
          "internalType": "uint256",
          "name": "tokenId",
          "type": "uint256"
        },
        {
          "internalType": "uint256",
          "name": "price",
          "type": "uint256"
        },
        {
          "internalType": "address payable",
          "name": "seller",
          "type": "address"
        },
        {
          "internalType": "bool",
          "name": "sold",
          "type": "bool"
        },
        {
          "internalType": "bool",
          "name": "forSale",
          "type": "bool"
        },
        {
          "internalType": "bool",
          "name": "flagged",
          "type": "bool"
        },
        {
          "internalType": "uint256",
          "name": "rating",
          "type": "uint256"
        }
      ],
      "stateMutability": "view",
      "type": "function"
    },
    {
      "inputs": [
        {
          "internalType": "uint256",
          "name": "_tokenId",
          "type": "uint256"
        }
      ],
      "name": "buyAfricaPrint",
      "outputs": [],
      "stateMutability": "payable",
      "type": "function"
    },
    {
      "inputs": [
        {
          "internalType": "uint256",
          "name": "_tokenId",
          "type": "uint256"
        }
      ],
      "name": "getAfricaPrint",
      "outputs": [
        {
          "components": [
            {
              "internalType": "contract IERC721",
              "name": "nft",
              "type": "address"
            },
            {
              "internalType": "uint256",
              "name": "tokenId",
              "type": "uint256"
            },
            {
              "internalType": "uint256",
              "name": "price",
              "type": "uint256"
            },
            {
              "internalType": "address payable",
              "name": "seller",
              "type": "address"
            },
            {
              "internalType": "bool",
              "name": "sold",
              "type": "bool"
            },
            {
              "internalType": "bool",
              "name": "forSale",
              "type": "bool"
            },
            {
              "internalType": "bool",
              "name": "flagged",
              "type": "bool"
            },
            {
              "internalType": "uint256",
              "name": "rating",
              "type": "uint256"
            }
          ],
          "internalType": "struct NFTMarketplace.AfricaPrint",
          "name": "",
          "type": "tuple"
        }
      ],
      "stateMutability": "view",
      "type": "function"
    },
    {
      "inputs": [],
      "name": "getAfricaPrintCount",
      "outputs": [
        {
          "internalType": "uint256",
          "name": "",
          "type": "uint256"
        }
      ],
      "stateMutability": "view",
      "type": "function"
    },
    {
      "inputs": [
        {
          "internalType": "contract IERC721",
          "name": "_nft",
          "type": "address"
        },
        {
          "internalType": "uint256",
          "name": "_tokenId",
          "type": "uint256"
        },
        {
          "internalType": "uint256",
          "name": "_price",
          "type": "uint256"
        }
      ],
      "name": "listAfricaPrint",
      "outputs": [],
      "stateMutability": "nonpayable",
      "type": "function"
    },
    {
      "inputs": [
        {
          "internalType": "uint256",
          "name": "_africaPrintPrice",
          "type": "uint256"
        },
        {
          "internalType": "uint256",
          "name": "_tokenId",
          "type": "uint256"
        }
      ],
      "name": "modifyAfricaPrintPrice",
      "outputs": [],
      "stateMutability": "payable",
      "type": "function"
    },
    {
      "inputs": [
        {
          "internalType": "uint256",
          "name": "_tokenId",
          "type": "uint256"
        },
        {
          "internalType": "uint256",
          "name": "_rating",
          "type": "uint256"
        }
      ],
      "name": "rateAfricaPrint",
      "outputs": [],
      "stateMutability": "nonpayable",
      "type": "function"
    },
    {
      "inputs": [
        {
          "internalType": "uint256",
          "name": "_tokenId",
          "type": "uint256"
        }
      ],
      "name": "toggleFlagged",
      "outputs": [],
      "stateMutability": "nonpayable",
      "type": "function"
    },
    {
      "inputs": [
        {
          "internalType": "uint256",
          "name": "_tokenId",
          "type": "uint256"
        }
      ],
      "name": "toggleForSale",
      "outputs": [],
      "stateMutability": "nonpayable",
      "type": "function"
    }
  ],
  "bytecode": "0x60806040526000805534801561001457600080fd5b5033600260006101000a81548173ffffffffffffffffffffffffffffffffffffffff021916908373ffffffffffffffffffffffffffffffffffffffff160217905550611720806100656000396000f3fe6080604052600436106100915760003560e01c8063c520c1f911610059578063c520c1f91461015a578063c52f4c2f14610183578063c8857ebc1461019f578063e10494e3146101c8578063fd873bbc1461020557610091565b806318a56e1d1461009657806356235f81146100c15780639e69de71146100dd578063a32018b914610108578063babf0ea314610131575b600080fd5b3480156100a257600080fd5b506100ab610249565b6040516100b89190611385565b60405180910390f35b6100db60048036038101906100d69190610f7a565b610252565b005b3480156100e957600080fd5b506100f2610381565b6040516100ff9190611385565b60405180910390f35b34801561011457600080fd5b5061012f600480360381019061012a9190610f51565b610387565b005b34801561013d57600080fd5b5061015860048036038101906101539190610f51565b6104fb565b005b34801561016657600080fd5b50610181600480360381019061017c9190610f02565b6105e2565b005b61019d60048036038101906101989190610f51565b6108af565b005b3480156101ab57600080fd5b506101c660048036038101906101c19190610f7a565b610b9b565b005b3480156101d457600080fd5b506101ef60048036038101906101ea9190610f51565b610c69565b6040516101fc9190611369565b60405180910390f35b34801561021157600080fd5b5061022c60048036038101906102279190610f51565b610db2565b60405161024098979695949392919061120b565b60405180910390f35b60008054905090565b8060006001600083815260200190815260200160002090508060030160169054906101000a900460ff16156102bc576040517f08c379a00000000000000000000000000000000000000000000000000000000081526004016102b3906112c9565b60405180910390fd5b3373ffffffffffffffffffffffffffffffffffffffff166001600085815260200190815260200160002060030160009054906101000a900473ffffffffffffffffffffffffffffffffffffffff1673ffffffffffffffffffffffffffffffffffffffff1614610360576040517f08c379a000000000000000000000000000000000000000000000000000000000815260040161035790611349565b60405180910390fd5b83600160008581526020019081526020016000206002018190555050505050565b60005481565b8060006001600083815260200190815260200160002090508060030160169054906101000a900460ff16156103f1576040517f08c379a00000000000000000000000000000000000000000000000000000000081526004016103e8906112c9565b60405180910390fd5b6000600160008581526020019081526020016000209050600073ffffffffffffffffffffffffffffffffffffffff163373ffffffffffffffffffffffffffffffffffffffff16141561044257600080fd5b3373ffffffffffffffffffffffffffffffffffffffff168160030160009054906101000a900473ffffffffffffffffffffffffffffffffffffffff1673ffffffffffffffffffffffffffffffffffffffff161461049e57600080fd5b8060030160159054906101000a900460ff16156104d75760008160030160156101000a81548160ff0219169083151502179055506104f5565b60018160030160156101000a81548160ff0219169083151502179055505b50505050565b600260009054906101000a900473ffffffffffffffffffffffffffffffffffffffff1673ffffffffffffffffffffffffffffffffffffffff163373ffffffffffffffffffffffffffffffffffffffff161461055557600080fd5b60008111801561056757506000548111155b61057057600080fd5b60006001600083815260200190815260200160002090508060030160169054906101000a900460ff16156105c05760008160030160166101000a81548160ff0219169083151502179055506105de565b60018160030160166101000a81548160ff0219169083151502179055505b5050565b8160006001600083815260200190815260200160002090508060030160169054906101000a900460ff161561064c576040517f08c379a0000000000000000000000000000000000000000000000000000000008152600401610643906112c9565b60405180910390fd5b6000831161068f576040517f08c379a000000000000000000000000000000000000000000000000000000000815260040161068690611309565b60405180910390fd5b6000808154809291906106a190611441565b91905055508473ffffffffffffffffffffffffffffffffffffffff166323b872dd3330876040518463ffffffff1660e01b81526004016106e3939291906111d4565b600060405180830381600087803b1580156106fd57600080fd5b505af1158015610711573d6000803e3d6000fd5b505050506040518061010001604052808673ffffffffffffffffffffffffffffffffffffffff1681526020018581526020018481526020013373ffffffffffffffffffffffffffffffffffffffff1681526020016000151581526020016001151581526020016000151581526020016003815250600160008054815260200190815260200160002060008201518160000160006101000a81548173ffffffffffffffffffffffffffffffffffffffff021916908373ffffffffffffffffffffffffffffffffffffffff160217905550602082015181600101556040820151816002015560608201518160030160006101000a81548173ffffffffffffffffffffffffffffffffffffffff021916908373ffffffffffffffffffffffffffffffffffffffff16021790555060808201518160030160146101000a81548160ff02191690831515021790555060a08201518160030160156101000a81548160ff02191690831515021790555060c08201518160030160166101000a81548160ff02191690831515021790555060e082015181600401559050505050505050565b8060006001600083815260200190815260200160002090508060030160169054906101000a900460ff1615610919576040517f08c379a0000000000000000000000000000000000000000000000000000000008152600401610910906112c9565b60405180910390fd5b6000600160008581526020019081526020016000209050600115158160030160159054906101000a900460ff16151514610988576040517f08c379a000000000000000000000000000000000000000000000000000000000815260040161097f90611289565b60405180910390fd5b60008411801561099a57506000548411155b6109d9576040517f08c379a00000000000000000000000000000000000000000000000000000000081526004016109d090611329565b60405180910390fd5b8060020154341015610a20576040517f08c379a0000000000000000000000000000000000000000000000000000000008152600401610a17906112a9565b60405180910390fd5b8060030160149054906101000a900460ff1615610a72576040517f08c379a0000000000000000000000000000000000000000000000000000000008152600401610a69906112e9565b60405180910390fd5b8060030160009054906101000a900473ffffffffffffffffffffffffffffffffffffffff1673ffffffffffffffffffffffffffffffffffffffff166108fc82600201549081150290604051600060405180830381858888f19350505050158015610ae0573d6000803e3d6000fd5b5060018160030160146101000a81548160ff0219169083151502179055508060000160009054906101000a900473ffffffffffffffffffffffffffffffffffffffff1673ffffffffffffffffffffffffffffffffffffffff166323b872dd303384600101546040518463ffffffff1660e01b8152600401610b63939291906111d4565b600060405180830381600087803b158015610b7d57600080fd5b505af1158015610b91573d6000803e3d6000fd5b5050505050505050565b600260009054906101000a900473ffffffffffffffffffffffffffffffffffffffff1673ffffffffffffffffffffffffffffffffffffffff163373ffffffffffffffffffffffffffffffffffffffff1614610bf557600080fd5b600073ffffffffffffffffffffffffffffffffffffffff163373ffffffffffffffffffffffffffffffffffffffff161415610c2f57600080fd5b600082118015610c4157506000548211155b610c4a57600080fd5b8060016000848152602001908152602001600020600401819055505050565b610c71610e61565b60016000838152602001908152602001600020604051806101000160405290816000820160009054906101000a900473ffffffffffffffffffffffffffffffffffffffff1673ffffffffffffffffffffffffffffffffffffffff1673ffffffffffffffffffffffffffffffffffffffff16815260200160018201548152602001600282015481526020016003820160009054906101000a900473ffffffffffffffffffffffffffffffffffffffff1673ffffffffffffffffffffffffffffffffffffffff1673ffffffffffffffffffffffffffffffffffffffff1681526020016003820160149054906101000a900460ff161515151581526020016003820160159054906101000a900460ff161515151581526020016003820160169054906101000a900460ff161515151581526020016004820154815250509050919050565b60016020528060005260406000206000915090508060000160009054906101000a900473ffffffffffffffffffffffffffffffffffffffff16908060010154908060020154908060030160009054906101000a900473ffffffffffffffffffffffffffffffffffffffff16908060030160149054906101000a900460ff16908060030160159054906101000a900460ff16908060030160169054906101000a900460ff16908060040154905088565b604051806101000160405280600073ffffffffffffffffffffffffffffffffffffffff1681526020016000815260200160008152602001600073ffffffffffffffffffffffffffffffffffffffff168152602001600015158152602001600015158152602001600015158152602001600081525090565b600081359050610ee7816116bc565b92915050565b600081359050610efc816116d3565b92915050565b600080600060608486031215610f1757600080fd5b6000610f2586828701610ed8565b9350506020610f3686828701610eed565b9250506040610f4786828701610eed565b9150509250925092565b600060208284031215610f6357600080fd5b6000610f7184828501610eed565b91505092915050565b60008060408385031215610f8d57600080fd5b6000610f9b85828601610eed565b9250506020610fac85828601610eed565b9150509250929050565b610fbf816113c3565b82525050565b610fce816113c3565b82525050565b610fdd816113b1565b82525050565b610fec816113d5565b82525050565b610ffb816113d5565b82525050565b61100a8161141d565b82525050565b6110198161141d565b82525050565b600061102c6021836113a0565b9150611037826114b9565b604082019050919050565b600061104f6022836113a0565b915061105a82611508565b604082019050919050565b6000611072601c836113a0565b915061107d82611557565b602082019050919050565b60006110956028836113a0565b91506110a082611580565b604082019050919050565b60006110b8602a836113a0565b91506110c3826115cf565b604082019050919050565b60006110db6029836113a0565b91506110e68261161e565b604082019050919050565b60006110fe6029836113a0565b91506111098261166d565b604082019050919050565b6101008201600082015161112b6000850182611001565b50602082015161113e60208501826111b6565b50604082015161115160408501826111b6565b5060608201516111646060850182610fb6565b5060808201516111776080850182610fe3565b5060a082015161118a60a0850182610fe3565b5060c082015161119d60c0850182610fe3565b5060e08201516111b060e08501826111b6565b50505050565b6111bf81611413565b82525050565b6111ce81611413565b82525050565b60006060820190506111e96000830186610fd4565b6111f66020830185610fd4565b61120360408301846111c5565b949350505050565b600061010082019050611221600083018b611010565b61122e602083018a6111c5565b61123b60408301896111c5565b6112486060830188610fc5565b6112556080830187610ff2565b61126260a0830186610ff2565b61126f60c0830185610ff2565b61127c60e08301846111c5565b9998505050505050505050565b600060208201905081810360008301526112a28161101f565b9050919050565b600060208201905081810360008301526112c281611042565b9050919050565b600060208201905081810360008301526112e281611065565b9050919050565b6000602082019050818103600083015261130281611088565b9050919050565b60006020820190508181036000830152611322816110ab565b9050919050565b60006020820190508181036000830152611342816110ce565b9050919050565b60006020820190508181036000830152611362816110f1565b9050919050565b60006101008201905061137f6000830184611114565b92915050565b600060208201905061139a60008301846111c5565b92915050565b600082825260208201905092915050565b60006113bc826113f3565b9050919050565b60006113ce826113f3565b9050919050565b60008115159050919050565b60006113ec826113b1565b9050919050565b600073ffffffffffffffffffffffffffffffffffffffff82169050919050565b6000819050919050565b60006114288261142f565b9050919050565b600061143a826113f3565b9050919050565b600061144c82611413565b91507fffffffffffffffffffffffffffffffffffffffffffffffffffffffffffffffff82141561147f5761147e61148a565b5b600182019050919050565b7f4e487b7100000000000000000000000000000000000000000000000000000000600052601160045260246000fd5b7f7468697320206166726963617072696e74206973206e6f7420666f722073616c60008201527f6500000000000000000000000000000000000000000000000000000000000000602082015250565b7f4e46544d61726b6574706c6163653a206e6f7420656e6f7567682062616c616e60008201527f6365000000000000000000000000000000000000000000000000000000000000602082015250565b7f7468697320206166726963617072696e7420697320666c616767656400000000600082015250565b7f4e46544d61726b6574706c6163653a206166726963617072696e7420616c726560008201527f61647920736f6c64000000000000000000000000000000000000000000000000602082015250565b7f4e46544d61726b6574706c6163653a2050726963652073686f756c642062652060008201527f61626f7665207a65726f00000000000000000000000000000000000000000000602082015250565b7f4e46544d61726b6574706c6163653a206166726963617072696e7420646f657360008201527f6e27742065786973740000000000000000000000000000000000000000000000602082015250565b7f4e46544d61726b6574706c6163653a2043616e277420706572666f726d20747260008201527f616e73616374696f6e0000000000000000000000000000000000000000000000602082015250565b6116c5816113e1565b81146116d057600080fd5b50565b6116dc81611413565b81146116e757600080fd5b5056fea26469706673582212200c41692b8cb25841fb193906b3ced6b085d468db51e53cb5cfd7b29959058def64736f6c63430008040033",
  "linkReferences": {},
  "deployedLinkReferences": {}
}